:100000000C9462000C94080F0C94E10E0C948A007E
:100010000C948A000C948A000C948A000C948A0038
:100020000C948A000C948A000C948A000C948A0028
:100030000C948A000C948A000C948A000C948A0018
:100040000C94970E0C948A000C94550F0C942F0F5F
:100050000C948A000C948A000C948A000C948A00F8
:100060000C94870F0C948A000000000024002700E5
:100070002A0000000000250028002B0000000000DE
:1000800023002600290004040404040404040202DA
:100090000202020203030303030301020408102007
:1000A0004080010204081020010204081020000012
:1000B0000008000201000003040700000000000027
:1000C0000000A61011241FBECFEFD8E0DEBFCDBFC9
:1000D00023E0ACE2B2E001C01D92AE3DB207E1F711
:1000E00012E0A0E0B1E0E2E3FFE202C005900D9271
:1000F000AC32B107D9F710E0C2E6D0E004C02197D6
:10010000FE010E945F17C136D107C9F70E94E410B3
:100110000C9497170C940000833081F028F4813000
:1001200099F08230A9F008958730A9F08830C9F09D
:100130008430B1F4809180008F7D03C08091800075
:100140008F7780938000089584B58F7784BD08955C
:1001500084B58F7DFBCF8091B0008F778093B00006
:1001600008958091B0008F7DF9CFCF93DF93282F32
:1001700030E0F901E255FF4F8491F901E656FF4F57
:10018000D491F901EA57FF4FC491CC23A1F081111A
:100190000E948C00EC2FF0E0EE0FFF1FE458FF4FA1
:1001A000A591B491EC91ED2381E090E009F480E019
:1001B000DF91CF91089580E090E0FACF1F93CF9325
:1001C000DF93282F30E0F901E255FF4F8491F901C8
:1001D000E656FF4FD491F901EA57FF4FC491CC2363
:1001E000A9F0162F81110E948C00EC2FF0E0EE0F89
:1001F000FF1FEE58FF4FA591B4918FB7F894EC9183
:10020000111108C0D095DE23DC938FBFDF91CF9111
:100210001F910895DE2BF8CFCF93DF9390E0FC0180
:10022000E656FF4F24918A579F4FFC018491882303
:10023000C9F090E0880F991FFC01E859FF4FA59184
:10024000B491FC01EE58FF4FC591D49161110DC0DE
:100250009FB7F8948C91209582238C9388812823D2
:1002600028839FBFDF91CF910895623051F49FB7EB
:10027000F8943C91822F809583238C93E8812E2BD8
:10028000EFCF8FB7F894EC912E2B2C938FBFEACF42
:100290001F93CF93DF93182FEB0161E00E940C01B5
:1002A000209739F460E0812FDF91CF911F910C945A
:1002B000DE00CF3FD10511F461E0F5CFE12FF0E092
:1002C000E255FF4FE491E33031F140F4E130B1F019
:1002D000E230E1F0C038D1057CF7E4CFE73029F116
:1002E000E83059F1E430B1F780918000806280936A
:1002F0008000D0938B00C0938A0004C084B58068CE
:1003000084BDC7BDDF91CF911F91089584B58062F0
:1003100084BDC8BDF7CF8091800080688093800045
:10032000D0938900C0938800EDCF8091B0008068A1
:100330008093B000C093B300E5CF8091B00080629D
:100340008093B000C093B400DDCF8E3008F08E50A3
:100350008770806480937C0080917A0080648093B1
:100360007A0080917A0086FDFCCF80917800909190
:10037000790008953FB7F8948091BF029091C00230
:10038000A091C102B091C20226B5A89B05C02F3F23
:1003900019F00196A11DB11D3FBFBA2FA92F982FAB
:1003A0008827BC01CD01620F711D811D911D42E0A6
:1003B000660F771F881F991F4A95D1F708950895F2
:1003C000EF92FF920F931F93CF93DF93DC01E091A5
:1003D0007702F091780280A98C9381A911968C9371
:1003E000119782A912968C93129783A994A91496B7
:1003F0009C938E93139705A916A927A930AD15963E
:100400000D931D932D933C93189781AD19968C9362
:10041000199790E085E021AD921780F0FB01808173
:10042000865F922F990F990F920F890F8083DF912A
:10043000CF911F910F91FF90EF900895899F8001B8
:1004400011249F01200F311FE9014AAD7801EA0E06
:10045000FB1EE7014A87E9010BAD1CAD2DAD3EAD9A
:10046000E7010B871C872D873E879F5FD4CF8F9234
:100470009F92AF92BF92FF920F931F93CF93DF9300
:10048000FC012091770230917802D901A25BBF4F25
:100490008C91808311968D919C9111979283818389
:1004A00012968C918383E901CE5ADF4F8881848331
:1004B00090E085E0F82E8881981798F08F5F982F4C
:1004C000990F990F980FFB018081890F8083DF912D
:1004D000CF911F910F91FF90BF90AF909F908F9001
:1004E0000895092F10E0D8011196FA9EA001FB9EF5
:1004F000500D1124D901A40FB51FA25BBF4F8C91E1
:100500004E0F5F1FDA018C93F09EA001F19E500DFB
:100510001124D901A40FB51FAC5ABF4F8D909D90E7
:10052000AD90BC904E0F5F1FDA0116968D929D9292
:10053000AD92BC9219979F5FBECFEF92FF920F933F
:100540001F93CF93DF93EB01FA01823009F456C079
:100550008330A1F0813059F4A0917702B0917802F4
:10056000A258BF4F8C91888380818F5F8083DF91F9
:10057000CF911F910F91FF90EF90089540917702D6
:100580005091780220E0BA0162587F4F35E0DB01DC
:100590008C91281760F7239F70011124CA018E0DDA
:1005A0009F1D8C0107571F4FD8011C91EC0EFD1E9B
:1005B000D7011C938C0106571F4FD8011C91D701FE
:1005C00011961C938C0105571F4FD8011C91D70120
:1005D00012961C938C0104571F4FD8011C91D70110
:1005E00013961C9383579F4FDC018C91D70114966F
:1005F0008C9380818B5F80832F5FC9CF80818F5FD9
:100600008083609177027091780240E0842F90E0BF
:10061000880F991F9B01280F391F21583F4FD9017F
:100620000D911C910115110509F4A1CF7E01E80E71
:10063000F91ED70111960C93D90111968C91D7010F
:1006400012968C9380818E5F808388818F5F8883F0
:100650004F5FDCCFFB0180818D5F80830895823006
:10066000E8F4E82FF0E0EE0FFF1FE050FF4F71833A
:100670006083813041F0809169008C7F482B4093EA
:100680006900E89A089580916900837F440F551F9F
:10069000440F551F482B40936900E99A0895089527
:1006A000AF92BF92CF92DF92EF92FF920F931F9380
:1006B000CF93DF936C017B018B01040F151FEB01BE
:1006C0005E01AE18BF08C017D10759F06991D60175
:1006D000ED91FC910190F081E02DC6010995892BE7
:1006E00079F7C501DF91CF911F910F91FF90EF90A6
:1006F000DF90CF90BF90AF900895FC01538D448D53
:10070000252F30E0842F90E0821B930B541710F0BC
:10071000CF96089501970895FC01918D828D9817C9
:1007200061F0A28DAE0FBF2FB11D5D968C91928DA1
:100730009F5F9F73928F90E008958FEF9FEF0895D2
:10074000FC01918D828D981731F0828DE80FF11D9B
:10075000858D90E008958FEF9FEF0895FC01918DB6
:10076000228D892F90E0805C9F4F821B91098F73AF
:100770009927089583E393E00E94AE0321E0892B3B
:1007800009F420E0822F089580E090E0892B29F081
:100790000E94BA0381110C9400000895FC01A48DFD
:1007A000A80FB92FB11DA35ABF4F2C91848D90E093
:1007B00001968F739927848FA689B7892C93A08976
:1007C000B1898C91837080648C93938D848D981300
:1007D00006C00288F389E02D80818F7D8083089593
:1007E000EF92FF920F931F93CF93DF93EC0181E081
:1007F000888F9B8D8C8D98131AC0E889F989808128
:1008000085FF15C09FB7F894EE89FF896083E8895A
:10081000F98980818370806480839FBF81E090E04C
:10082000DF91CF911F910F91FF90EF900895F62ED9
:100830000B8D10E00F5F1F4F0F731127E02E8C8D73
:100840008E110CC00FB607FCFACFE889F9898081B8
:1008500085FFF5CFCE010E94CE03F1CFEB8DEC0FDB
:10086000FD2FF11DE35AFF4FF0829FB7F8940B8FD5
:10087000EA89FB8980818062CFCFCF93DF93EC013F
:10088000888D8823B9F0AA89BB89E889F9898C9178
:1008900085FD03C0808186FD0DC00FB607FCF7CF34
:1008A0008C9185FFF2CF808185FFEDCFCE010E9434
:1008B000CE03E9CFDF91CF91089520915202260F08
:1008C0003327331F21323105ECF420910903FC0159
:1008D00090E080E0243069F082E00895A091520217
:1008E0002191AC01405D5D4FA40FB52FB11D2C933C
:1008F0000196861798F380915202680F6093520216
:1009000080E0089581E008951092090381E08093CA
:1009100008031092E30261E082E10E94DE0061E0E0
:1009200083E10E94DE00E9EBF0E080818E7F80832E
:1009300080818D7F808388E48093B80085E48093F4
:10094000BC000895CF93DF9391E090932F0288230A
:10095000B9F0C091B800D091BA008091BC008A7BF8
:100960008093BC0060E082E10E94DE0060E083E1F1
:100970000E94DE000E948404D093BA00C093B800A5
:10098000DF91CF9108958F929F92AF92BF92CF92B5
:10099000DF92EF92FF920F931F93CF93DF93D0914B
:1009A0003203D13208F0D7C0182FC09131030E9412
:1009B000BA016B017C018091090381116BC082E057
:1009C00080930903109308038FEF8093070310921D
:1009D0000603D0930503A1E1B3E0E5EEF2E080E089
:1009E000D81391C01092E4028091E402CC0FC82B7E
:1009F000C093E4028091E302813009F088C0109234
:100A0000E3020E94BA016B017C018091E4028093B1
:100A1000BB0080910B0390910C03A0910D03B0914A
:100A20000E03892B8A2B8B2BA1F00E94BA01009117
:100A30000B0310910C0320910D0330910E036C19E0
:100A40007D098E099F09061717072807390708F43B
:100A500042C08091BC0083FDD8CF85EC8093BC0060
:100A60000E94BA016B017C0180910903823009F474
:100A700050C0809107038F3F09F46FC08091070336
:100A8000803209F46CC080910703803309F469C097
:100A900084E026C080910B0390910C03A0910D037C
:100AA000B0910E03892B8A2B8B2B09F484CF0E94E3
:100AB000BA0180900B0390900C03A0900D03B090AE
:100AC0000E036C197D098E099F0986169706A806E4
:100AD000B90608F070CF80910A030E94A20485E055
:100AE000109210031092320310920F03DF91CF91F6
:100AF0001F910F91FF90EF90DF90CF90BF90AF903C
:100B00009F908F9008959D9191938F5F69CF85EE0F
:100B1000A5CF80910B0390910C03A0910D03B09190
:100B20000E03892B8A2B8B2B09F49ECF0E94BA01CE
:100B300000910B0310910C0320910D0330910E03D3
:100B40006C197D098E099F090617170728073907B1
:100B500008F08ACFC0CF81E0C3CF80E0C1CF82E070
:100B6000BFCF83E0BDCFCF92DF92EF92FF920F9382
:100B70001F93CF93DF93D82FC62F613208F098C010
:100B80000E94BA016B017C018091090381116BC045
:100B900081E080930903809308039FEF90930703FC
:100BA000109206039C0F909305038093E4028091BA
:100BB000E402DD0FD82BD093E4028091E302813070
:100BC00009F078C01092E3020E94BA016B017C0127
:100BD0008091E4028093BB0080910B0390910C0301
:100BE000A0910D03B0910E03892B8A2B8B2BA1F0C2
:100BF0000E94BA0100910B0310910C0320910D0388
:100C000030910E036C197D098E099F09061717078D
:100C10002807390708F448C08091BC0083FDD8CF6D
:100C200085EC8093BC000E94BA016B017C0180912D
:100C30000903813009F440C0809106038C1710F439
:100C4000C0910603E5EEF2E0A3ECB2E080E08C1385
:100C500055C08C2FDF91CF911F910F91FF90EF9096
:100C6000DF90CF90089580910B0390910C03A09199
:100C70000D03B0910E03892B8A2B8B2B09F484CFA3
:100C80000E94BA0100910B0310910C0320910D03F7
:100C900030910E036C197D098E099F0906171707FD
:100CA0002807390708F070CF80910A030E94A20438
:100CB000C0E0CFCF85EEB5CF80910B0390910C03B0
:100CC000A0910D03B0910E03892B8A2B8B2B09F475
:100CD000AECF0E94BA0100910B0310910C0320913A
:100CE0000D0330910E036C197D098E099F090617BB
:100CF00017072807390708F09ACFD6CF91919D930F
:100D00008F5FA5CF089508950895E0912E028091F8
:100D10002D02E81730F4F0E0ED53FD4F808190E0B4
:100D200008958FEF9FEF089590912E0280912D02EC
:100D30002FEF3FEF981748F4E92FF0E0ED53FD4F08
:100D4000208130E09F5F90932E02C9010895809129
:100D50002D0290912E02891B990B0895CF92DF925C
:100D6000EF92FF920F931F93CF93DF937C01CB0100
:100D70008A0120910F03222389F0EB016B01C40E3D
:100D8000D51ECC15DD0569F06991D701ED91FC9177
:100D90000190F081E02DC7010995F3CF642F0E94E7
:100DA0005D04C801DF91CF911F910F91FF90EF90EB
:100DB000DF90CF900895CF93DF931F92CDB7DEB72A
:100DC000698320910F032223F9F02091320320320E
:100DD00058F021E030E0FC013383228390E080E092
:100DE0000F90DF91CF91089580911003E82FF0E0EC
:100DF000EF5EFC4F998190838F5F80931003809307
:100E0000320381E090E0ECCF61E0CE0101960E94D8
:100E10005D04F7CF90E080E00895EF92FF920F938A
:100E20001F93CF93DF93EB01DA01823009F44BC0BB
:100E30008330A1F0813059F4E0917702F09178028B
:100E4000E959FF4F808188838C918F5F8C93DF916C
:100E5000CF911F910F91FF90EF90089540917702ED
:100E60005091780220E07A0187E6E80EF11C33E029
:100E7000F7018081281758F7622F70E0CB01880FA7
:100E8000991F860F971F840F951FBC016E587F4FC7
:100E9000FB011081BE01239F600D711D1124FB0118
:100EA00010838C010D581F4FF8011081FB01118335
:100EB0008C589F4FFC018081FB0182838C918D5F58
:100EC0008C932F5FD5CF8C918F5F8C93609177023D
:100ED0007091780240E0842F90E0880F991F9B0169
:100EE000280F391F28593F4FF90100811181011541
:100EF000110509F4ACCF7E01E80EF91EF70101835C
:100F0000F9018181F70182838C918E5F8C938881B6
:100F10008F5F88834F5FDFCFCF93C82F2227342F77
:100F2000452F562F60E072E18AE790E00E943D175E
:100F3000211580E438074105510500F121153105DF
:100F400081E048075105E0F02115310584E04807AC
:100F50005105C0F02115310580E148075105A0F089
:100F6000211531054044510588F086E0C73080F4F2
:100F7000C530E8F4C33091F080E417C081E0F6CFCB
:100F800082E0F4CF83E0F2CF84E0F0CF85E0EECFD3
:100F9000C93090F3CB3080F0CB3071F79091B10035
:100FA000987F892B8093B10080E0CF91089595B50B
:100FB000987F892B85BDF8CF90918100987F892BF0
:100FC00080938100F1CF8DE00C94B5008CE00C94FF
:100FD000B5008BE00C94B5008AE00C94B50089E074
:100FE0000C94B50088E00C94B50087E00C94B50033
:100FF00086E00C94B50085E00C94B50084E00C9478
:10100000B50083E00C94B50082E00C94B50081E05B
:101010000C94B50080E00C94B5000F931F93CF9310
:101020008C01FC01818191E090930F038093310347
:101030001092100310923203638180ED93E00E94BE
:10104000DB06C0E0F8018581C81748F4EC0FF11DFC
:10105000668180ED93E00E94DB06CF5FF3CF81E0F5
:101060000E94C30480E0CF911F910F9108950F93C8
:101070001F93CF938C01FC01818191E090930F032A
:10108000809331031092100310923203C0E0F801F4
:101090008381C81748F4EC0FF11D648180ED93E063
:1010A0000E94DB06CF5FF3CF81E00E94C30490E093
:1010B0008630910540F4845D9E4FFC018081CF9184
:1010C0001F910F9108958FEFFACFCF93DF93EC012B
:1010D00010922E0210922D021092100310923203E1
:1010E0000E94840482E896E090935102809350021B
:1010F00083E896E0909355028093540249815A8187
:1011000088EE93E0489F9001499F300D589F300D25
:10111000112450E040E060E074E284EF90E00E942F
:101120003D17205131094109510956954795379589
:1011300027952093B80080E0DF91CF910895FF922A
:101140000F931F93CF93DF93CDB7DEB72C970FB6D6
:10115000F894DEBF0FBECDBF8C01FC0165817681A6
:1011600090E080E00E94771520E030E04FE753E404
:101170000E94B41520E030E44CE156E40E948C1645
:101180000E94FE16F62EF80122813381A90170E03B
:1011900060E08481823021F5A8EEB3E00E947D16E4
:1011A000AB01BC01F8018181908126E0E4E0F1E02F
:1011B000DE01179601900D922A95E1F726E0EAE00C
:1011C000F1E0DE01119601900D922A95E1F792343B
:1011D000D1F0943479F09F3509F450C080E42DC0EB
:1011E000833001F7AB0160E472E48FE090E00E948D
:1011F0002D17D6CF833099F18530E9F18630E1F4AF
:10120000E2E0F0E02EC0813021F1823029F183301C
:1012100099F482E090E0880F991FE1E0F0E0EC0F94
:10122000FD1FE80FF91F1781812F0E948C076F2D7A
:1012300070E0812F0E94480180E02C960FB6F89450
:10124000DEBF0FBECDBFDF91CF911F910F91FF90F9
:10125000089590E080E0DFCF81E090E0DCCFF0E027
:10126000E0E0EE0FFF1F81E090E08C0F9D1FE80F84
:10127000F91F1181D9CFE1E0F0E0F3CF0E948C0794
:101280006F2D70E0F8018181D5CF80E0089580E076
:101290000895CF93DF93FC012081233411F0213690
:1012A00089F4EB01FC0181810E94A501092E000C4B
:1012B000AA0BBB0B88839983AA83BB8380E0DF9151
:1012C000CF91089580E4FBCF8F929F92AF92BF920F
:1012D000EF92FF920F931F93CF93DF93EC018881DE
:1012E0008334D9F08434F1F0823439F08F35F9F059
:1012F000813609F450C080E405C089819D8189232D
:1013000085B980E0DF91CF911F910F91FF90EF9011
:10131000BF90AF909F908F90089589819D81892380
:1013200088B9EFCF89819D8189238BB9EACF10E0FD
:1013300000E0EE24E394F12C802FA701002E02C0E0
:10134000440F551F0A94E2F7052E000C660B770B2D
:1013500089809A80AB80BC8084229522A622B72205
:1013600089288A288B2889F08D809E80AF80B88458
:10137000482159216A217B2191E0452B462B472B9F
:1013800009F490E0692F0E94DE000F5F1F4F0E30BE
:10139000110591F6B6CF10E000E0EE24E394F12CB5
:1013A000802FA701002E02C0440F551F0A94E2F7B8
:1013B000052E000C660B770B89809A80AB80BC8071
:1013C00084229522A622B72289288A288B2889F090
:1013D0008D809E80AF80B884482159216A217B216D
:1013E00091E0452B462B472B09F490E0692F0E9492
:1013F000DE000F5F1F4F0630110591F682CFAF92CE
:10140000BF92CF92DF92EF92FF920F931F93CF93F1
:10141000DF93FC01DB0180818334B1F18434B1F1CD
:10142000823449F08B016F018F3591F1813609F4D7
:1014300076C080E41EC043B150E070E060E00181FE
:101440001281238134814023512362237323159613
:101450004D935D936D937C93189741815281638185
:10146000748111964D935D936D937C9314978C9337
:1014700080E0DF91CF911F910F91FF90EF90DF906F
:10148000CF90BF90AF90089546B1D6CF49B1D4CF99
:10149000F12CE12CD0E0C0E0AA24A394B12CC5012A
:1014A0000E2C02C0880F991F0A94E2F7092E000C37
:1014B000AA0BBB0BF60141815281638174818423A5
:1014C0009523A623B723892B8A2B8B2B59F08E2D9E
:1014D0000E94B5000E2C02C0880F991F0A94E2F7F3
:1014E000C82BD92BFFEFEF1AFF0A8EE0E816F104A4
:1014F000B1F6F60181819281A381B481F8018183E3
:101500009283A383B483F6018081F8018083CE01A6
:10151000B0E0A0E085839683A783B087A9CFF12CA4
:10152000E12CD0E0C0E0AA24A394B12CC5010E2C7C
:1015300002C0880F991F0A94E2F7092E000CAA0B2B
:10154000BB0BF60141815281638174818423952311
:10155000A623B723892B8A2B8B2B59F08E2D0E9423
:10156000A5010E2C02C0880F991F0A94E2F7C82B20
:10157000D92BFFEFEF1AFF0A86E0E816F104B1F667
:10158000B8CF4F925F926F927F92AF92BF92CF92FD
:10159000DF92EF92FF920F931F93CF93DF93EC01B3
:1015A0008881833401F1843421F1823439F08F351C
:1015B00031F1813609F4C1C080E406C08D81809587
:1015C0009981892384B980E0DF91CF911F910F9198
:1015D000FF90EF90DF90CF90BF90AF907F906F9093
:1015E0005F904F9008958D8180959981892387B967
:1015F000EACF8D818095998189238AB9E4CFF12C36
:10160000E12CCC24C394D12C3FE4A32E33E0B32EA1
:101610001E2D26010E2C02C0440C551C0A94E2F724
:10162000052C000C6608770889819A81AB81BC8102
:1016300084219521A621B721892B8A2B8B2B89F018
:101640008D819E81AF81B88584219521A621B72106
:1016500061E0892B8A2B8B2B09F060E0812F0E949F
:101660000C0189899A89AB89BC8984219521A6219D
:10167000B721892B8A2B8B2BD1F18D899E89AF893C
:10168000B88D84219521A621B721892B8A2B8B2BFC
:1016900009F444C0F701EE0FFF1F298D3A8D4B8DE1
:1016A0005C8D6D8D7E8D8F8D98A10E2F0E9467179A
:1016B000B22FB3702B2F30E040E050E060E070E0DC
:1016C00080E090E0A2E00E948217D1F0A3E00E94A7
:1016D0008217E9F0A1E00E94821749F4E05FFE4F13
:1016E0006081718143E050E0812F0E942F038FEFD2
:1016F000E81AF80A8EE0E816F10409F089CF63CF02
:10170000E05FFE4F6081718142E050E0EDCFE05F2D
:10171000FE4F6081718141E050E0E6CF123038F732
:10172000113049F0E898F701EE0FFF1FE050FF4F2E
:10173000B182A082DCCFE998F6CFF12CE12C01E058
:1017400010E08E2DA8010E2C02C0440F551F0A94E4
:10175000E2F7052E000C660B770B49805A806B80F0
:101760007C80442255226622772245284628472835
:1017700089F04D805E806F807884442155216621F8
:10178000772191E0452B462B472B09F490E0692FF8
:101790000E940C018FEFE81AF80A86E0E816F104BF
:1017A00081F611CF462F50E0BC0183E393E00E9405
:1017B000500383E393E00E943D0480E00895CF92BC
:1017C000DF92EF92FF920F931F93CF93DF938C01E1
:1017D000EB0181E2FB0111928A95E9F7F801D180D2
:1017E000CC24C394ED2CF12CF801838194818E15C7
:1017F0009F05D0F0C0920F03D092310310921003D6
:101800001092320381E00E94C30481110BC0E88171
:1018100081E08E0F8883F0E0EE0FFF1FEC0FFD1FBD
:10182000F282E182D394DECF80E0DF91CF911F91ED
:101830000F91FF90EF90DF90CF900895DC018C9195
:10184000813069F4EAE7F2E080E4DF011D928A95D5
:10185000E9F71092790283E393E00E943D0480E06F
:1018600008950F931F93CF93DF93DB01EA018C93CD
:1018700091E098838330D9F138F4813040F5DF91DD
:10188000CF911F910F9108958430C9F7009177028D
:1018900010917802F80164897589FB01019000209C
:1018A000E9F73197AF01461B570BCD0101960E9416
:1018B0008E17F801A489B589FD0101900020E9F790
:1018C0003197EA1BFB0B8881E80FE8830EC0119665
:1018D000E0917702F09178023A9683E001900D92C0
:1018E0008A95E1F788818D5F888380E0C8CF119663
:1018F000E0917702F09178023D9687E001900D9299
:101900008A95E1F78881895FEFCF8F929F92AF929E
:10191000BF92EF92FF920F931F93CF93DF93DB0160
:10192000EA018C9391E09883823009F446C068F410
:101930008130C1F1DF91CF911F910F91FF90EF9016
:10194000BF90AF909F908F900895833081F0843046
:1019500089F71196E0917702F0917802779689E104
:1019600001900D928A95E1F78881875E24C060918D
:1019700077027091780281E025E0FB019689981743
:10198000C8F2AB01289F400D511D1124FA0197891F
:10199000AD01480F511DFA01908398819F5F988394
:1019A0008F5FEBCFE0917702F091780286891196F4
:1019B0008C9388818F5F8883BDCF11961C9211977D
:1019C0002091770230917802F12C85E0E82E01E039
:1019D00010E0F9018689F81660F790E080E0F901DF
:1019E000EF9CE00DF11D11247896A801082E02C08D
:1019F000440F551F0A94E2F7052E000C660B770B77
:101A000080809180A280B380482159216A217B2166
:101A1000452B462B472B39F011964C9111974F5F70
:101A200011964C931197019680329105F1F6F3943B
:101A3000D0CFEF92FF920F931F93CF93DF93EC01E0
:101A40007B019091DC038091DD039CBD8DBD89817C
:101A50008F3F11F48AE0898360E089810E94DE0073
:101A60008A8190E08E010D5F1F4F0097C1F02B819E
:101A70002EBDF8019C012150310941F051810DB476
:101A800007FEFDCF4EB55EBD4193F5CF0197F8013E
:101A9000E80FF91F0DB407FEFDCF8EB5808361E01E
:101AA00089810E94DE002A81F7012193CF014A81BA
:101AB00050E0B8010E948E1780E0DF91CF911F9116
:101AC0000F91FF90EF9008954091790250E06AE7FE
:101AD00072E00E948E1780E0089585ED8093BC002F
:101AE00080910B0390910C03A0910D03B0910E0314
:101AF0000796A11DB11D23E0B695A79597958795EB
:101B00002A95D1F72091BC0024FD03C0109209034F
:101B1000089540910B0350910C0360910D03709157
:101B20000E03452B462B472B69F30097A105B10502
:101B300041F02AE22A95F1F700C00197A109B10905
:101B4000E1CF80910A030C94A204CF92DF92EF922E
:101B5000FF92CF93DF93EC01FFB6F89480912C02B3
:101B6000811127C0E0E9F0E08491E4EAF0E094918B
:101B7000E82FF0E0EE0FFF1FE859FF4FA591B49159
:101B8000EC91E92321F461E08AE00E94DE0061E04B
:101B90008AE00E940C018CB580618CBD8CB580649C
:101BA0008CBD61E08DE00E940C0161E08BE00E9441
:101BB0000C0180912C028F5F80932C02FFBE2B8141
:101BC00049815A8188EE93E0489F6001499FD00C7B
:101BD000589FD00C1124F12CE12C40E052E16AE72F
:101BE00070E080E076956795579547958F5F8630D2
:101BF00011F487E005C0C416D506E606F70690F393
:101C000091E098273C813323E1F030E52C709695E4
:101C1000922B932B9093DC03809581708093DD034E
:101C20008D818F3F11F48AE08D8361E08D810E9468
:101C30000C0180E0DF91CF91FF90EF90DF90CF908B
:101C4000089530E7E3CF0F931F93CF93DF938C0179
:101C5000EB01FC01818191E090930F0380933103AC
:101C60001092100310923203638180ED93E00E9482
:101C7000DB0681E00E94C304882369F090E086308F
:101C8000910548F5845D9E4FFC018081DF91CF91E5
:101C90001F910F910895F8016581613208F060E2AB
:101CA000F80181810E94B305182F10922E028093B3
:101CB0002D02188280912E02181779F080ED93E0A2
:101CC0000E949406E88191E09E0F9883EC0FFD2F0F
:101CD000F11D8183EFCF8FEFD9CF80E0D7CF1F9356
:101CE000CF93DF93EB01FC016381613208F060E286
:101CF000FC0181810E94B305182F10922E0280935F
:101D00002D0280912E02181769F080ED93E00E9459
:101D10009406E88191E09E0F9883EC0FFD2FF11D52
:101D20008183EFCF80E0DF91CF911F9108951F92C3
:101D30000F920FB60F9211242F933F938F939F937F
:101D4000AF93BF938091BB029091BC02A091BD0262
:101D5000B091BE023091BA0223E0230F2D3758F51F
:101D60000196A11DB11D2093BA028093BB029093EE
:101D7000BC02A093BD02B093BE028091BF029091BD
:101D8000C002A091C102B091C2020196A11DB11D75
:101D90008093BF029093C002A093C102B093C2028D
:101DA000BF91AF919F918F913F912F910F900FBE57
:101DB0000F901F90189526E8230F0296A11DB11DC4
:101DC000D2CF1F920F920FB60F9211242F933F93F1
:101DD0004F935F936F937F938F939F93AF93BF9333
:101DE000EF93FF93E0910201F09103010995FF91B8
:101DF000EF91BF91AF919F918F917F916F915F9183
:101E00004F913F912F910F900FBE0F901F901895FB
:101E10001F920F920FB60F9211242F933F934F935F
:101E20005F936F937F938F939F93AF93BF93EF9342
:101E3000FF93E0910001F09101010995FF91EF916D
:101E4000BF91AF919F918F917F916F915F914F91D2
:101E50003F912F910F900FBE0F901F9018951F92DA
:101E60000F920FB60F9211242F933F934F935F93CE
:101E70006F937F938F939F93AF93BF93EF93FF9352
:101E800083E393E00E94CE03FF91EF91BF91AF9166
:101E90009F918F917F916F915F914F913F912F9182
:101EA0000F900FBE0F901F9018951F920F920FB6B4
:101EB0000F9211242F938F939F93EF93FF93E091B1
:101EC0004303F09144038081E0914903F0914A0378
:101ED00082FD1BC0908180914C038F5F8F73209196
:101EE0004D03821741F0E0914C03F0E0ED5CFC4FB4
:101EF000958F80934C03FF91EF919F918F912F913C
:101F00000F900FBE0F901F9018958081F4CF1F92F5
:101F10000F920FB60F9211242F933F934F935F931D
:101F20006F937F938F939F93AF93BF93EF93FF93A1
:101F30008091B900887F803609F44AC0F0F5883274
:101F400009F4A7C018F5803109F49BC0B8F48823C0
:101F500009F4F9C0883009F494C0FF91EF91BF9162
:101F6000AF919F918F917F916F915F914F913F9131
:101F70002F910F900FBE0F901F901895883109F484
:101F800088C0803251F78093070314C0803409F46D
:101F90009DC040F48033B9F38833F9F6809307038A
:101FA00085ECB0C0803509F485C0883509F496C049
:101FB000883499F60E946D0DD0CF883909F48CC011
:101FC00038F5883729F050F4883611F0803729F633
:101FD00083E0809309031092760257C0883809F491
:101FE0007BC0803919F0803809F0B7CF8091760234
:101FF000803208F071C0E091760281E08E0F80930C
:1020000076028091BB00F0E0EA5AFD4F80833DC02C
:10201000803B39F0E0F4803A09F479C0883A09F05D
:102020009CCF84E0809309031092530210925202D5
:10203000E0915002F0915102099580915202811174
:102040000FC081E0809352021092300209C0803CA0
:1020500009F4A6CF883C09F4A3CF883B09F07DCFD3
:10206000E091530281E08E0F80935302F0E0E05D37
:10207000FD4F80818093BB0090915302809152026A
:1020800029C08091E4028093BB0085EC8093BC0062
:1020900064CF9091060380910503981758F5E0915D
:1020A000060381E08E0F80930603F0E0EB51FD4FB5
:1020B0008081E9CFE091060381E08E0F80930603D3
:1020C0008091BB00F0E0EB51FD4F808390910603BF
:1020D000809105039817C8F285E8D8CFE0910603F0
:1020E00081E08E0F809306038091BB00F0E0EB51FE
:1020F000FD4F80838091080381115CCF81E0809344
:10210000E30284EA8093BC001092090326CF85EC99
:102110008093BC001092090380917602803230F4E3
:10212000E0917602F0E0EA5AFD4F1082609176026B
:1021300070E0E0915402F091550286E592E0099535
:10214000109276020ACF1092070334CFE3E3F3E054
:102150001382128288EE93E0A0E0B0E0848395833E
:10216000A683B78320E032E03183208325EC30E082
:102170003587248724EC30E03787268720EC30E051
:10218000318B208B21EC30E0338B228B22EC30E042
:10219000358B248B26EC30E0378B268B118E128EFC
:1021A000138E148EE0EDF3E0138212828483958304
:1021B000A683B78382E192E091838083ECEDF3E024
:1021C00080E5808311820895CF93DF93CDB7DEB78A
:1021D000CD5FD1090FB6F894DEBF0FBECDBF7894A6
:1021E00084B5826084BD84B5816084BD85B582601C
:1021F00085BD85B5816085BD80916E0081608093CD
:102200006E00109281008091810082608093810035
:102210008091810081608093810080918000816045
:10222000809380008091B10084608093B1008091A0
:10223000B00081608093B00080917A0084608093C8
:102240007A0080917A00826080937A0080917A008F
:10225000816080937A0080917A00806880937A0010
:102260001092C100E0914303F091440382E0808327
:10227000E0913F03F09140031082E0914103F0911F
:10228000420380E1808310924B03E0914703F09179
:10229000480386E08083E0914503F0914603808106
:1022A00080618083E0914503F091460380818860DE
:1022B0008083E0914503F0914603808180688083AC
:1022C000E0914503F091460380818F7D808382E316
:1022D00091E090937802809377020E94BA014B01BB
:1022E0005C01F4E6CF2ED12CE12CF12C0E94BA0136
:1022F000681979098A099B09683E7340810591052F
:10230000A8F321E0C21AD108E108F10868EE860EB0
:1023100063E0961EA11CB11CC114D104E104F104B8
:1023200029F76E018DEBC80ED11C8E0103581F4F8B
:10233000760198E0E90EF11C5801A8E0AA0EB11C44
:1023400080917A029091790289139BC0882309F4C5
:1023500098C0E0E49E2EF601292D11922A95E9F706
:10236000E0917702F09178020280F381E02D60E441
:10237000C6010995D8011D929A94E9F7F60180816A
:102380009181892B09F469C0C350DF4F1882CD5F5A
:10239000D04026813781A0917702B0917802273012
:1023A0003105D0F525303105F0F52130310509F43E
:1023B000DCC008F4CEC02230310509F4E1C0832F1F
:1023C00099278330910509F4EAC208F06CC2813084
:1023D000910509F484C2029731F52230E2E03E070C
:1023E00009F4D4C208F0B3C2211562E0360709F43B
:1023F000B8C221303240B9F4A855BF4FED91FC91DD
:10240000C7010995D80113968C93C350DF4F88817B
:10241000CD5FD0408F5F95C22730310509F43DC2B2
:102420002B3D310561F6F60126813781C350DF4F20
:102430008881CD5FD04090E00896D80111969C939A
:102440008E9383E012968C93129715961C921E928F
:10245000149717963C932E931697E0917702F0917C
:1024600078020480F581E02DD8016C91C8010995AE
:1024700010927902EAE7F2E080E4DF011D928A958A
:10248000E9F783E393E00E94AE03892B09F454C07B
:1024900083E393E00E94AE033C0140907902512C0B
:1024A000F201E658FD4F2F01912C812C681479041C
:1024B00009F43DC02FB7F8948091BB029091BC0203
:1024C000A091BD02B091BE022FBF80933B039093B9
:1024D0003C03A0933D03B0933E0383E393E00E944B
:1024E0008C0397FFFDC22FB7F8948091BB029091A7
:1024F000BC02A091BD02B091BE022FBF40913B0330
:1025000050913C0360913D0370913E03841B950BF9
:10251000A60BB70B409137035091380360913903F4
:1025200070913A0384179507A607B707B0F2809118
:102530007902880E8092790280E090E0892B09F47C
:10254000FFCE0E94BA03882309F4FACE0E9400004D
:10255000F7CEAE0143505F4FB801685F7F4F808573
:102560000E94310CF80183835ECFA056BF4FED91DE
:10257000FC91C60108960995D80113968C9353CF08
:1025800082849384408551851A82198281E39CE07C
:102590009C838B8381E090E09E838D83CD01805668
:1025A0009F4FFC018081918198878F833A8729878B
:1025B0001C861B868BED90E09E878D878FED91E0CA
:1025C000988B8F8787E090E09A8B898B8D919C9177
:1025D00011979C8B8B8B80E091E09E8B8D8B85E897
:1025E0009CE0988F8F8B81E091E09A8F898F329653
:1025F000808191819C8F8B8F82E091E09E8F8D8F67
:1026000032968081918198A38F8F83E091E09AA385
:1026100089A33296808191819CA38BA380E092E074
:102620009EA38DA380EE91E098A78FA381E092E016
:102630009AA789A73296808191819CA78BA782E077
:1026400092E09EA78DA732968081918198AB8FA74B
:1026500083E092E09AAB89AB3296808191819CAB0A
:102660008BAB84E092E09EAB8DAB32968081918102
:1026700098AF8FAB80E093E09AAF89AF87E392E0A9
:102680009CAF8BAF81E093E09EAF8DAF329680819F
:10269000918121969FAF8EAF219782E093E02396A0
:1026A0009FAF8EAF239732968081918125969FAF01
:1026B0008EAF259780E095E027969FAF8EAF279746
:1026C0008DE097E029969FAF8EAF299781E095E046
:1026D0002B969FAF8EAF2B973296808191812D964E
:1026E0009FAF8EAF2D9782E095E02F969FAF8EAF74
:1026F0002F9732968081918161969FAF8EAF6197BF
:1027000083E095E063969FAF8EAF639732968081AA
:10271000918165969FAF8EAF659784E095E067964F
:102720009FAF8EAF679732968081918169969FAFF8
:102730008EAF699785E095E06B969FAF8EAF6B97F4
:102740003296808191816D969FAF8EAF6D9786E0B6
:1027500095E06F969FAF8EAF6F9732968081918193
:10276000A1969FAF8EAFA19780E096E0A3969FAF12
:102770008EAFA3978DE992E0A5969FAF8EAFA597F8
:1027800081E096E0A7969FAF8EAFA79732968081A3
:102790009181A9969FAF8EAFA99782E096E0AB9604
:1027A0009FAF8EAFAB97329680819181AD969FAFF0
:1027B0008EAFAD9780E097E0AF969FAF8EAFAF97AB
:1027C0008AE293E0E1969FAF8EAFE19781E097E0D8
:1027D000E3969FAF8EAFE397329680819181E59625
:1027E0009FAF8EAFE59782E097E0E7969FAF8EAF01
:1027F000E797329680819181E9969FAF8EAFE997F6
:1028000083E097E0EB969FAF8EAFEB97A853BF4F57
:102810008D919C91ED969FAF8EAFED9783E0C35065
:10282000DF4F8883CD5FD040FE01319690E080E09D
:10283000712C73E0672E2081318124173507B8F0A1
:1028400082169306A0F062817381672B81F062E2A9
:10285000661508F1A72DB0E0AA0FBB1FA00FB11F8E
:102860001C963C932E931B976394639473943496B5
:102870000E171F0701F7C350DF4F6882CD5FD040AE
:10288000D8011A967C921A97870D911D19969C93E0
:102890008E931897C8CD0196EACFED91FC91C601B1
:1028A000089609955FCE8630910509F4D0C087302F
:1028B000910509F4F9C0059709F0B5CDF901F55076
:1028C000E730F10508F0AFCDE859FB4E0C945F17E7
:1028D000EE14F814FB140E151E15211524152130C5
:1028E000F1E03F07F1F070F42115314009F09BCD84
:1028F000AE0143505F4FB501D60118968C910E94EE
:10290000850C91CD223091E0390771F0AA55BF4F67
:102910002330314009F087CDED91FC91C701099535
:1029200082CDAE55BF4FF8CFAC55BF4FED91FC9166
:10293000B501C7010995C350DF4F8881CD5FD040F5
:10294000875FC350DF4F8883CD5FD0406CCD23308D
:1029500092E0390769F0A255BF4F24303240E1F2CE
:1029600062CDBE0163507F4FC5010E94E0015BCD87
:10297000A455BF4FED91FC91B501C7010995C35016
:10298000DF4F8881CD5FD0408C5FDBCFA655BF4F36
:10299000ED91FC91C7010995F801838336CD213073
:1029A000F3E03F0779F0223063E0360789F0211524
:1029B000334009F038CDBE0163507F4FC5010E94FE
:1029C000370231CDA055BF4FED91FC91C701D3CD5A
:1029D000AE54BF4FED91FC91C70163CFAE014350A0
:1029E0005F4FB501D60118968C910E940D071BCD43
:1029F000AC54BF4FEFCFAA54BF4FED91FC91B5013E
:102A0000C7010995C350DF4F8881CD5FD0408F5FEC
:102A1000D80118969C91990F890F93CFA854BF4F56
:102A2000ED91FC91B501C7010995F8018383C3506D
:102A3000DF4F8881CD5FD040908534C0A654BF4F12
:102A4000C3CFA454BF4FECCFA254BF4FBDCF213052
:102A5000E6E03E0791F02230F6E03F0789F02115CD
:102A6000364009F0E0CCAE0143505F4FB501D601CE
:102A700018968C910E949D02D6CCA054BF4FAACF2D
:102A8000AE53BF4FED91FC91B501C7010995D80137
:102A900013968C931397C350DF4F8881CD5FD0403E
:102AA00018969C91890FB6CC2130E7E03E0791F053
:102AB00030F483E02115374009F443CFB4CC223001
:102AC00087E0380751F0A853BF4F2330374009F44F
:102AD0007BCFA9CCAC53BF4F77CFAA53BF4FA0CF6A
:102AE000D2018D932D01BFEF8B1A9B0ADFCCE894A6
:102AF00009C097FB3EF490958095709561957F4F46
:102B00008F4F9F4F9923A9F0F92F96E9BB279395F3
:102B1000F695879577956795B795F111F8CFFAF403
:102B2000BB0F11F460FF1BC06F5F7F4F8F4F9F4F34
:102B300016C0882311F096E911C0772321F09EE892
:102B4000872F762F05C0662371F096E8862F70E0F8
:102B500060E02AF09A95660F771F881FDAF7880FD2
:102B60009695879597F908950E94C7150C94381685
:102B70000E942A1638F00E94311620F0952311F099
:102B80000C9421160C94271611240C946C160E9498
:102B9000491670F3959FC1F3950F50E0551F629F42
:102BA000F001729FBB27F00DB11D639FAA27F00DA6
:102BB000B11DAA1F649F6627B00DA11D661F829FCD
:102BC0002227B00DA11D621F739FB00DA11D621FB2
:102BD000839FA00D611D221F749F3327A00D611DCF
:102BE000231F849F600D211D822F762F6A2F1124B1
:102BF0009F5750409AF0F1F088234AF0EE0FFF1FE4
:102C0000BB1F661F771F881F91505040A9F79E3F3A
:102C1000510580F00C9421160C946C165F3FE4F380
:102C2000983ED4F3869577956795B795F795E79590
:102C30009F5FC1F7FE2B880F911D9695879597F999
:102C4000089597F99F6780E870E060E008959FEF2E
:102C500080EC089500240A94161617061806090633
:102C6000089500240A941216130614060506089502
:102C7000092E0394000C11F4882352F0BB0F40F48A
:102C8000BF2B11F460FF04C06F5F7F4F8F4F9F4FCA
:102C9000089557FD9058440F551F59F05F3F71F04C
:102CA0004795880F97FB991F61F09F3F79F08795B3
:102CB0000895121613061406551FF2CF4695F1DF3C
:102CC00008C0161617061806991FF1CF86957105CC
:102CD000610508940895E894BB2766277727CB0100
:102CE00097F908950E947D16A59F900DB49F900DB1
:102CF000A49F800D911D11240895A29FB001B39F40
:102D0000C001A39F700D811D1124911DB29F700DF4
:102D1000811D1124911D08950E94A0160C9438164F
:102D20000E94311658F00E942A1640F029F45F3FA5
:102D300029F00C94211651110C946C160C94271642
:102D40000E94491668F39923B1F3552391F3951B1B
:102D5000550BBB27AA2762177307840738F09F5FBC
:102D60005F4F220F331F441FAA1FA9F335D00E2E29
:102D70003AF0E0E832D091505040E695001CCAF796
:102D80002BD0FE2F29D0660F771F881FBB1F261759
:102D900037074807AB07B0E809F0BB0B802DBF0130
:102DA000FF2793585F4F3AF09E3F510578F00C94FF
:102DB00021160C946C165F3FE4F3983ED4F386958D
:102DC00077956795B795F7959F5FC9F7880F911D20
:102DD0009695879597F90895E1E0660F771F881F0C
:102DE000BB1F621773078407BA0720F0621B730BBF
:102DF000840BBA0BEE1F88F7E09508950E945116D8
:102E000088F09F5798F0B92F9927B751B0F0E1F0AB
:102E1000660F771F881F991F1AF0BA95C9F714C05B
:102E2000B13091F00E946B16B1E008950C946B16CE
:102E3000672F782F8827B85F39F0B93FCCF3869594
:102E400077956795B395D9F73EF4909580957095F1
:102E500061957F4F8F4F9F4F0895DB018F939F9315
:102E60000E947216BF91AF91A29F800D911DA39FEA
:102E7000900DB29F900D11240895A1E21A2EAA1B65
:102E8000BB1BFD010DC0AA1FBB1FEE1FFF1FA2171A
:102E9000B307E407F50720F0A21BB30BE40BF50B17
:102EA000661F771F881F991F1A9469F760957095A0
:102EB000809590959B01AC01BD01CF010895EE0F67
:102EC000FF1F0590F491E02D099497FD1094002EBA
:102ED000083098F00850232F342F452F562F672F96
:102EE000782F892F912DF4CF159497958795779505
:102EF000679557954795379527950A95AAF7112411
:102F0000002D08950024A7FD00942A1730054005E0
:102F1000500560057005800590050895FB01DC01F2
:102F200002C001900D9241505040D8F70895F89496
:022F3000FFCFD1
:102F32004F034F030109020A030B030305050606AB
:102F42000A08070804080108FE07FB07F807F50747
:102F5200F207EF07EC07E907E607E30700FF8182C4
:102F6200FF800000640DD20B00000000000200E9A7
:102F720007041615340720020542FF000000437FB4
:102F820000000044FF0000005FFF3F0000613F00BF
:102F9200000001060A8813E803000002433F000014
:102FA20000613F000000000000000000000000007F
:102FB20006127A0103420E00000044680000005F1E
:102FC200680E000000000000000264009001000092
:102FD2000000000043040561040500000000000039
:102FE200027D00FA00E803A00F000042040305027C
:102FF2005F0B0C0D0A000000000000000000000042
:1030020000001E0CC10AFF096409450900004909B4
:10301200000047099F086508DF0B6F0E3708230E73
:103022000D08A50D190D00000000000000000000B1
:10303200F00350037D033D04AE038C03A0030000A4
:103042000000DB06AE060A078406A706940685067C
:0C30520061726475696E6F5F756E6F00CF
:00000001FF
